:060000000A128A110C280F
:10000800FE00030EF7000A08F8000A128A15B72A3C
:100018000A128A110F28831603130A168A115C25FF
:100028000A128A11DD000A168A115D250A128A1140
:10003800DE000A168A115E250A128A11DF000A16E6
:100048008A115A250A128A11FC000A168A115B25A0
:100058000A128A11FD008313C7308400DD300A12AA
:100068008A11F8270A128A11F901FA01FB018301A2
:100078000A128A15652D831203134B088039D5009F
:100088004B08D0005007DB00CA1F4B284C284D28CE
:100098005B145B0803195128522861285B0A031D69
:1000A800562857285F280030CB000030CA0000309F
:1000B800C9000030C800CA1769280030CB000030DA
:1000C800CA000030C9000030C8004F088039D0008D
:1000D8005008D5064F08D0005007DA00CE1F752803
:1000E800762877285A145A0803197B287C288B28E5
:1000F8005A0A031D8028812889280030CF00003043
:10010800CE000030CD000030CC00CE179328003050
:10011800CF000030CE000030CD000030CC005A08AF
:100128000319972898289D285B08031D9C289D285B
:10013800A6280030CB000030CA000030C9000030CB
:10014800C800832B4808A0004E080A168A11F52516
:100158000A128A11831203132108E1002008E00023
:100168006008D000D101D201D3015308D900520848
:10017800D8005108D7005008D6006108D000D10136
:10018800D201D3015308DF005208DE005108DD0018
:100198005008DC004908A0004D080A168A11F52508
:1001A8000A128A11831203132108E1002008E000D3
:1001B8006008D000D101D201D3015008D6075108F8
:1001C80003110318013E0319EA28D707520803113F
:1001D8000318013E0319F128D8075308031103181F
:1001E800013E0319F828D9076108D000D101D201CE
:1001F800D3015008DC07510803110318013E031905
:100208000629DD07520803110318013E03190D29B9
:10021800DE07530803110318013E03191429DF07E9
:100228004A08A0004C080A168A11F5250A128A11F4
:10023800831203132108E1002008E0006008D000C1
:10024800D101D201D3015008D60751080311031870
:10025800013E03193029D707520803110318013E3C
:1002680003193729D807530803110318013E031946
:100278003E29D9076108D000D101D201D301500825
:10028800DC07510803110318013E03194C29DD0747
:10029800520803110318013E03195329DE075308B6
:1002A80003110318013E03195A29DF070830D0004B
:1002B8000310D60DD70DD80DD90DD00B5C294908E0
:1002C800A0004C080A168A11F5250A128A11831211
:1002D80003132108E1002008E0006008D00061084D
:1002E800D100D201D3015008D607510803110318D1
:1002F800013E03198029D707520803110318013E4C
:1003080003198729D807530803110318013E031955
:100318008E29D9074808A0004D080A168A11F52524
:100328000A128A11831203132108E1002008E00051
:100338006008D0006108D100D201D3015008D60767
:10034800510803110318013E0319AB29D7075208B6
:1003580003110318013E0319B229D80753080311E2
:100368000318013E0319B929D9070830D000031032
:10037800D60DD70DD80DD90DD00BBB294808A00034
:100388004C080A168A11F5250A128A1183120313DA
:100398002108E1002008E0006008D0006108D100D1
:1003A800D201D3015008D607510803110318013EA2
:1003B8000319DF29D707520803110318013E03194F
:1003C800E629D807530803110318013E0319ED293C
:1003D800D9074908A0004E080A168A11F5250A12FD
:1003E8008A11831203132108E1002008E000600845
:1003F800D0006108D100D201D3015008DC075108B0
:1004080003110318013E03190A2ADD0752080311D4
:100418000318013E0319112ADE07530803110318B4
:10042800013E0319182ADF074A08A0004D080A16DA
:100438008A11F5250A128A11831203132108E10093
:100448002008E0006008D0006108D100D201D30183
:100458005008DC07510803110318013E0319352A17
:10046800DD07520803110318013E03193C2ADE0771
:10047800530803110318013E0319432ADF074A08EA
:10048800A0004E080A168A11F5250A128A1183124D
:1004980003132108E1002008E0006008D00061088B
:1004A800D100D201D30108300310D00DD10DD20DE7
:1004B800D30DFF3E031D582A5008DC0751080311CD
:1004C8000318013E0319692ADD07520803110318AE
:1004D800013E0319702ADE07530803110318013E71
:1004E8000319772ADF075608D0005708D1005808A3
:1004F800D2005908D30018300310D30CD20CD10CF9
:10050800D00CFF3E031D802A5008DC075108031158
:100518000318013E0319912ADD0752080311031835
:10052800013E0319982ADE07530803110318013EF8
:1005380003199F2ADF070830D0000310D60DD70D06
:10054800D80DD90DD00BA12A5B085A07D000D101CC
:10055800D10D5008823EE00051080318013EFF3ECD
:10056800E100D32A0130D0000310DC0DDD0DDE0DD3
:10057800DF0DD00BB82AD91FC22AC32AC42A5C149B
:100588000130D0000310D60DD70DD80DD90DD00BE2
:10059800C62AFF30E0070318E10AFF30E107DE1F33
:1005A800D62AD72AB62ADA01D91FDB2ADC2AF82A62
:1005B800FF305605D000FF305705D100FF305805F1
:1005C800D2007F305905D300530852045104500417
:1005D8000319EF2AF02AF32ADA01DA0AF82A5C1C4E
:1005E800F62AF72AF82AF02A5A080319FC2AFD2ABB
:1005F8002E2B0130DC07003003180130DD070030F6
:1006080003180130DE07003003180130DF075F1CD4
:100618000E2B0F2B2E2B5C08D0005D08D1005E0836
:10062800D2005F08D3000130D400530DD30CD20C94
:10063800D10CD00CD40B192B5308DF005208DE0064
:100648005108DD005008DC000130E0070318E10A1A
:100658000030E1076108803AFF0080307F02031D07
:10066800372BFF306002031C3A2B3B2B462B7F3085
:1006780083120313DF008030DE000030DD0000301D
:10068800DC00772B831203136108803AFF00803067
:100698007F02031D512B013060020318542B552B88
:1006A800612B003083120313DF000030DE000030BE
:1006B800DD000030DC00D501772B831203136008BE
:1006C800DB00FF30DC05FF30DD057F30DE05003064
:1006D800DF055B1C702B712B722BDE175B08D000BB
:1006E8000310500CDF005508D0005008DF045F08E5
:1006F800CB005E08CA005D08C9005C08C800080095
:100708008312031365088039EA006508831603130A
:10071800A000200783120313EC00E41F942B952BF1
:10072800962B6C146C0803199A2B9B2BAB2B6C0A19
:10073800031D9F2BA02BA82B0030E5000030E40000
:100748000030E3000030E200E417E501B32B00308D
:10075800E5000030E4000030E3000030E200690802
:100768008039EB006B086A060319BB2BBC2BBD2B29
:100778006A17690883160313A0002007831203135E
:10078800EB00E81FC82BC92BCA2B6B146B08031985
:10079800CE2BCF2BDF2B6B0A031DD32BD42BDC2BBB
:1007A8000030E9000030E8000030E7000030E600E3
:1007B800E817E901E72B0030E9000030E8000030D5
:1007C800E7000030E6006C086B020318EC2BED2BF9
:1007D800172C6A1FF02BF12BF92B8030831603138B
:1007E800A000200883120313EA066C08ED006B08CA
:1007F800EC006D08EB006208ED006608E2006D0889
:10080800E6006308ED006708E3006D08E700640888
:10081800ED006808E4006D08E8006508ED00690867
:10082800E5006D08E900ED016B0883160313A000CD
:10083800A1012108A300831203136C088316031374
:100848002002A200031CA3032308803AFF00803083
:100858007F02031D312C1A302202031C342C352C44
:10086800782C831203136508640463046204031D6F
:100878003E2C402C0130412C0030ED000030E500CA
:100888000030E4000030E3000030E2006B08EC00C8
:10089800802C6D1C502C512C5C2C6D088316031376
:1008A800A0000310200C013883120313ED005E2C06
:1008B8000310ED0C621C612C622C632CED170130C7
:1008C80083160313A00083120313650DE50CE40CD3
:1008D800E30CE20C83160313A00B672C0130A00075
:1008E800200883120313EC07831203136B086C02AE
:1008F800031C7F2C802C4D2C6A1B832C842CD92C18
:100908006C08031D882C892C922C0030E5000030DF
:10091800E4000030E3000030E2006D2E6608E207D4
:10092800670803110318013E03199B2CE3076808A5
:1009380003110318013E0319A22CE40769080311E7
:100948000318013E0319A92CE507651CAC2CAD2C36
:10095800CD2D6D1CB02CB12CBC2C6D088316031347
:10096800A0000310200C013883120313ED00BE2CE5
:100978000310ED0C621CC12CC22CC32CED170130E6
:1009880083160313A00083120313650DE50CE40C12
:10099800E30CE20C83160313A00BC72C0130A00054
:1009A800200883120313EC07CD2D6508803AFF0059
:1009B8006908803A7F02031DEB2C68086402031D56
:1009C800EB2C67086302031DEB2C66086202031810
:1009D800EE2CEF2C7F2DFF3083160313A000FF3081
:1009E800A100FF30A200FF30A300831203136608A2
:1009F80083160313A40083120313670883160313D3
:100A0800A50083120313680883160313A600831234
:100A18000313690883160313A700831203136208DC
:100A280083160313A402831203136308031C630FC2
:100A38001E2D212D83160313A502831203136408A8
:100A4800031C640F282D2B2D83160313A602831273
:100A580003136508031C650F322D352D8316031308
:100A6800A70283120313831603132408A00725087B
:100A78000318250F402D412DA10726080318260F1E
:100A8800462D472DA20727080318270AA30723087E
:100A980083120313E500831603132208831203133A
:100AA800E40083160313210883120313E30083165B
:100AB8000313200883120313E20080308316031304
:100AC800A000200883120313EA06ED09ED0A6D0859
:100AD800031D6F2D702D8D2D0130E2070030031896
:100AE8000130E307003003180130E4070030031831
:100AF8000130E5078D2D6608E2026708031C670FC1
:100B0800E3026808031C680FE4026908031C690F04
:100B1800E5026508640463046204031D942D952DA1
:100B2800C92D6D08031D992D9A2DC92D0030E5009A
:100B38000030E4000030E3000030E2006D2E0130A8
:100B480083160313A000031083120313E20DE30DB1
:100B5800E40DE50D83160313A00BA72D83120313D1
:100B6800ED1FB72DB82DB92D62146D1CBC2DBD2DF0
:100B7800C02D0314ED0DC22D0310ED0D6C080319E3
:100B8800C62DC72DC92D0130EC02E41FCC2DCD2D6B
:100B9800A32DEB01ED1FD12DD22DE02D6D087F394E
:100BA8000319D72DD82DDB2DEB01EB0AE02D621CA4
:100BB800DE2DDF2DE02DD82D6B080319E42DE52D52
:100BC800392E0130E207003003180130E307003006
:100BD80003180130E407003003180130E507651CED
:100BE800F62DF72D392E620883160313A000831201
:100BF8000313630883160313A10083120313640805
:100C080083160313A20083120313650883160313C4
:100C1800A3000130A400230DA30CA20CA10CA00C6E
:100C2800A40B0F2E230883120313E5008316031366
:100C3800220883120313E400831603132108831286
:100C48000313E30083160313200883120313E2003F
:100C58006C0A0319302E312E392E013083160313F6
:100C6800A000200883120313EC076C0A03193D2E19
:100C78003E2E432E6C08031D422E432E512E00306B
:100C8800E5000030E4000030E3000030E2006C08CA
:100C9800031D4F2E502E512EEA016C1C542E552E3A
:100CA800572EE4175F2E7F3083160313A000200809
:100CB80083120313E4056C0883160313A0000310C2
:100CC800200C83120313E500EA1F6B2E6C2E6D2E89
:100CD800E517080083120313C7002F30C200352F11
:100CE800253048060319792E7A2E842E4708840069
:100CF8004808831380000130BF003F08C707352F1D
:100D0800C3010130AE07FF302E0784000A168A118E
:100D18000A200A128A11C800BF00C0014008003A20
:100D28000319972E352F3F08003A0319452F643AC7
:100D38000319A22E0D3A0319A22E352F420884005A
:100D480083130008C500840A0008C6000230BF00EB
:100D58003F08C207C61FB12EB22EBB2E0330BF00FC
:100D68003F08C304C509C609C50A0319C60AC8014C
:100D7800C80A4808BF003F07013E84000A168A11C6
:100D88000A200A128A11C0000A168A110A200A12B9
:100D98008A11C10041084602031DD42E40084502AD
:100DA8000318D72ED82ED92EE32E0130BF003F08C6
:100DB800C80705304806031DE22EE32EBD2E430862
:100DC80003390319E82EE92EF22E470884002D3046
:100DD800831380000130BF003F08C7074808C400DC
:100DE8002C2F0A30A8000030A9004408BF003F0794
:100DF800013E84000A168A110A200A128A11A000EC
:100E08000A168A110A200A128A11A1004608A300AC
:100E18004508A2000A168A11D9260A128A118312D5
:100E280003132108AB002008AA000A168A115726C6
:100E38000A128A11831203132808303EC800470893
:100E480084004808831380000130BF003F08C707AB
:100E5800FF30BF003F08C407440A031D342F352F55
:100E6800F52E0130AE07FF302E0784000A168A11CE
:100E78000A200A128A11C8004808031D442F452F6A
:100E8800742E47088400831380010800031083161A
:100E980003132A0D2B0D83120313EF006F08031D94
:100EA800562F572F622F003083160313AB000030E4
:100EB800AA000030A9000030A800D72F831603131A
:100EC8002808AC002908AD002A08AE002B08AF009E
:100ED8001F300310AF0CAE0CAD0CAC0CFF3E031D65
:100EE8006D2F2C0883120313EE0083160313AA1721
:100EF800FF30A805FF30A905FF30AA050030AB0573
:100F0800963083120313EF02EF1F8B2F8C2FAA2F1B
:100F18006F08803A973E0318922F932F942F572FDC
:100F28000130031083160313AB0CAA0CA90CA80CF0
:100F3800FF3E031D952F0130AC002C0883120313CC
:100F4800EF07031DA82FA92F942FC52F20306F025C
:100F5800031CAF2FB02FC02F572F01308316031358
:100F6800AC000310A80DA90DAA0DAB0DAC0BB52F45
:100F7800013083120313EF026F08031DC42FC52F1E
:100F8800B12F6E080319C92FCA2FD72F8316031341
:100F9800A809A909AA09AB09A80A0319A90A0319E2
:100FA800AA0A0319AB0A080083120313A000201C25
:100FB800DE2FDF2FE12F0816E22F0812A01CE52FE5
:100FC800E62FE82F8816E92F8812201DEC2FED2F29
:100FD800EF2F0817F02F0813A01DF32FF42FF62F6B
:100FE8008817F72F8813080064008001840A040614
:100FF800031900340406F92FF300F201731C0528C5
:1010080006280A287008F1007108F2070310F00D8D
:101018000310F30C7308031D122813280228720802
:10102800080083120313A601A31F1B281C282328CA
:10103800A209A309A20A0319A30AA601A60AA11FC5
:10104800262827282C28A009A109A00A0319A10AE3
:10105800200821040319312832286128A501A50A8E
:10106800402801300310A00DA10DFF3E031D3628B6
:101078000130A4002408A507A11F432844283528C7
:1010880021082302031D4A2820082202031C4D2898
:101098004E2854282008A2022108031CA303A302F7
:1010A80001300310A10CA00CFF3E031D5528013090
:1010B800A502031D6028612844282608031965280D
:1010C80066286B28A209A309A20A0319A30A230800
:1010D800A1002208A000080000300A128A11D827AF
:1010E8000A128A15343083120313A500F130A400C4
:1010F800A40B7C28A50B7C2803300A168A119F258F
:101108000A128A150D3083120313A500FB30A400C0
:10111800A40B8C28A50B8C2803300A168A119F254E
:101128000A128A15063083120313A400A40B9A2806
:10113800000003300A168A119F250A128A15023008
:101148000A168A119F250A128A1502300A168A1170
:101158009F250A128A1508300A168A119F250A1235
:101168008A1500300A168A119F250A128A150C3032
:101178000A168A119F250A128A1500300A168A1142
:101188009F250A128A1506300A168A119F250A1207
:101198008A15080083120313A601A11FD428D52895
:1011A800DC28A009A109A00A0319A10AA601A60A18
:1011B800A31FDF28E028E928A209A309A20A031926
:1011C800A30A0130A4002408A606A701A801200844
:1011D80021040319F028F1282829A501A50AFF28C8
:1011E80001300310A00DA10DFF3E031DF5280130AD
:1011F800A4002408A507A11F02290329F428013007
:101208000310A70DA80DFF3E031D04292108230282
:10121800031D102920082202031C132914291B2945
:101228002008A2022108031CA303A30227140130EB
:101238000310A10CA00CFF3E031D1C290130A502C0
:10124800031D272928290329260803192C292D29B4
:101258003229A709A809A70A0319A80A2808A1007A
:101268002708A000080083120313A8002808031900
:101278003E293F295329A31F4229432953292009DD
:10128800AA002109AB002209AC002309AD00AA0A73
:101298000319AB0A0319AC0A0319AD0A5B29230821
:1012A800AD002208AC002108AB002008AA002308E2
:1012B800220421042004031D622963296C290030BB
:1012C800A3000030A2000030A1000030A000F029E7
:1012D8009630A9007C290130A4002408A907013010
:1012E8000310AD0CAC0CAB0CAA0CFF3E031D74290B
:1012F800FE302D05031D812982296F299E29013081
:10130800A4002408A9070130AA07003003180130F7
:10131800AB07003003180130AC0700300318013068
:10132800AD0701300310AD0CAC0CAB0CAA0CFF3EA2
:10133800031D9629FF302D05031DA329A429832900
:10134800B0290130A9020130A4000310AA0DAB0D89
:10135800AC0DAD0DA40BA929AC1BB329B429BA292E
:10136800023029020318B929BA29A5292918BD2943
:10137800BE29C629FF30AA05FF30AB057F30AC0572
:10138800FF30AD050310A90C2908A400A501A6018A
:10139800A70118300310A40DA50DA60DA70DFF3E3B
:1013A800031DCE292408AA042508AB042608AC048A
:1013B8002708AD0428080319E229E329E829A31F0F
:1013C800E629E729E829AD172D08A3002C08A20073
:1013D8002B08A1002A08A000080083160313B600F2
:1013E800320883120313A0008316031333088312F1
:1013F8000313A100A201A30100300A128A153721A4
:101408000A128A15831203132308E9002208E80048
:101418002108E7002008E600831603133208340287
:1014280083120313A000831603133308031C330A23
:10143800350283120313A100A201A30100300A128E
:101448008A1537210A128A15831203132308B50057
:101458002208B4002108B3002008B2008316031341
:101468003008310283120313A000A101031CA10359
:10147800A201A11BA2032208A30001300A128A15A7
:1014880037210A128A15831203132308B100220890
:10149800B0002108AF002008AE000A128A15922376
:1014A8000A128A15831203133108CF003008CE00C0
:1014B8002F08CD002E08CC008316031330083602FF
:1014C80083120313A000A101031CA103A201A11B05
:1014D800A2032208A30001300A128A1537210A1232
:1014E8008A15831203132308CB002208CA00210897
:1014F800C9002008C8000A128A113F200A128A155A
:10150800831203134B08E5004A08E4004908E30086
:101518004808E2000A128A1184230A128A158312E3
:101528000313650883160313AB00831203136408BF
:1015380083160313AA008312031363088316031385
:10154800A90083120313620883160313A8000A1262
:101558008A114A270A128A15831603132908B1002B
:101568002808B0000800831203138C1EBC2ABD2A69
:101578001D2B1A08FB007908031DC32AC42ACE2A8A
:101588007B08FC007C080A168A1172250A128A1543
:10159800FC001D2B7903031DD22AD32AE12A7B08DC
:1015A80083160313DF005F080A168A1172250A12D0
:1015B8008A1583160313DF001D2B02307906031DDD
:1015C800E62AE72AF12A7B08FD007D080A168A1117
:1015D80072250A128A15FD001D2B03307906031D9A
:1015E800F62AF72AFC2A7B0883160313D9001D2B39
:1015F80004307906031D012B022B072B7B08831669
:101608000313D4001D2B05307906031D0C2B0D2B5D
:10161800122B7B0883160313D3001D2B0630790683
:10162800031D172B182B1D2B7B0883160313CF00C4
:101638001D2B831203138C1D222B232B8B2B13089A
:10164800FA007A08031D292B2A2B312B7C080A164D
:101658008A115F250A128A15882B7A03031D352BF8
:10166800362B3F2B831603135F080A168A115F2552
:101678000A128A15882B02307A06031D442B452B43
:101688004C2B7D080A168A115F250A128A15882BA9
:1016980003307A06031D512B522B5B2B8316031341
:1016A80059080A168A115F250A128A15882B0430F0
:1016B8007A06031D602B612B6A2B831603135408CB
:1016C8000A168A115F250A128A15882B05307A06B0
:1016D800031D6F2B702B792B8316031353080A16DF
:1016E8008A115F250A128A15882B06307A06031D8F
:1016F8007E2B7F2B882B831603134F080A168A111B
:101708005F250A128A15882B831203138C11780817
:101718008A00770E8300FE0E7E0E090083120313E3
:1017280035088039BF003508B6003607C600B41F33
:101738009E2B9F2BA02B461446080319A42BA52BE0
:10174800B52B460A031DA92BAA2BB22B0030B500D6
:101758000030B4000030B3000030B200B417B50157
:10176800BD2B0030B5000030B4000030B3000030AD
:10177800B20031088039B6003608BF063108B60015
:101788003607C700B01FC92BCA2BCB2B47144708F5
:101798000319CF2BD02BE02B470A031DD42BD52BB5
:1017A800DD2B0030B1000030B0000030AF00003059
:1017B800AE00B017B101E82B0030B1000030B00026
:1017C8000030AF000030AE00310830042F042E0482
:1017D800031DEF2BF02B092C0030B5000030B400AE
:1017E8000030B3000030B2008030B4047F30B5045C
:1017F8003F08B6003608B5043508B1003408B00013
:101808003308AF003208AE00642D4608031D0D2CC6
:101818000E2C172C0030B1000030B0000030AF00A3
:101828000030AE00642D4608B600B7013708B9008D
:1018380047083602B800031CB90338087F3EC000C9
:1018480039080318013E003EC1003508BE003408BF
:10185800BD003308BC003208BB000030B5000030C2
:10186800B4000030B3000030B2000030C5000030D2
:10187800C4000030C3000030C200C7018D2C4708E7
:101888000319472C482C682C0130B6000310BB0DF7
:10189800BC0DBD0DBE0DB60B4A2C0130B6000310B1
:1018A800B20DB30DB40DB50DB60B532CC51F5D2C81
:1018B8005E2C5F2C32140130B6000310C20DC30D2C
:1018C800C40DC50DB60B612C31083E02031D762CE4
:1018D80030083D02031D762C2F083C02031D762C90
:1018E8002E083B02031C792C7A2C892C45172E08CC
:1018F800BB022F08031C2F0FBC023008031C300F3B
:10190800BD023108031C310FBE020130B600360893
:10191800C7071A304702031C922C932C432C3E080D
:101928003D043C043B0403199A2C9B2CBA2C42140A
:10193800BA2C0130B6000310B20DB30DB40DB50DBD
:10194800B60B9F2CC51FA92CAA2CAB2C3214013026
:10195800B6000310C20DC30DC40DC50DB60BAD2CDA
:10196800FF30C0070318C10AFF30C107B41FBD2CE0
:10197800BE2C9D2CC701C51FC22CC32CDF2CFF30E9
:101988004205B600FF304305B700FF304405B800F4
:101998007F304505B900390838043704360403197F
:1019A800D62CD72CDA2CC701C70ADF2C321CDD2C29
:1019B800DE2CDF2CD72C47080319E32CE42C152D3B
:1019C8000130B207003003180130B30700300318A4
:1019D8000130B407003003180130B507351CF52C69
:1019E800F62C152D3208B6003308B7003408B800B5
:1019F8003508B9000130BA00390DB90CB80CB70C6C
:101A0800B60CBA0B002D3908B5003808B4003708F1
:101A1800B3003608B2000130C0070318C10A00300D
:101A2800C1074108803AFF0080307F02031D1E2D48
:101A3800FF304002031C212D222D302DFF30831250
:101A48000313C0000030C1000030B5000030B400FE
:101A58000030B3000030B200831203134108803A0B
:101A6800FF0080307F02031D3B2D01304002031828
:101A78003E2D3F2D4C2D83120313C001C1010030B0
:101A8800B5000030B4000030B3000030B200BF0130
:101A9800831203134008C600461C532D542D562D9F
:101AA800B4175A2D7F30B6003608B4054608B6007C
:101AB8000310360CB5003F08B6003608B504002CF4
:101AC80008000A168A111F270A128A150A128A158F
:101AD80070200A128A150A168A1165250A128A15B3
:101AE80083120313A401A40A01300A168A11B42729
:101AF8000A128A15393083120313A5008030A60014
:101B08000A168A1193260A128A1583160313B0013E
:101B1800FF30B1000030B200B300F430B40001303F
:101B2800B50059080A128A15F1210A128A15831676
:101B380003133108C8003008C70064308312031348
:101B4800A0000030A1008316031348088312031372
:101B5800A30083160313470883120313A2000A166F
:101B68008A11D9260A128A158312031320088316AC
:101B78000313CB009C3083120313A00083160313B6
:101B88004B080A168A1188250A128A158316031328
:101B98004707CA000B3083120313AE000A30A000B7
:101BA8000030A1007D0883160313B700B801370879
:101BB80083120313A2008316031338088312031336
:101BC800A3000A128A15CE200A128A15831203135B
:101BD8002108B0002008AF000A30A0000030A100A2
:101BE8007D0883160313B900BA0139088312031359
:101BF800A200831603133A0883120313A3000A12E0
:101C08008A1515200A128A15831203132108B200B7
:101C18002008B1000A30A0000030A1008316031389
:101C28005F08BB00BC013B0883120313A2008316A4
:101C380003133C0883120313A3000A128A15CE204B
:101C48000A128A15831203132108B4002008B3006E
:101C58000A30A0000030A100831603135F08BD00FE
:101C6800BE013D0883120313A200831603133E0826
:101C780083120313A3000A128A1515200A128A1563
:101C8800831203132108B6002008B5000A30A0000B
:101C98000030A1007C0883160313BF00C0013F0871
:101CA80083120313A200831603134008831203133D
:101CB800A3000A128A15CE200A128A15831203136A
:101CC8002108B8002008B7000A30A0000030A100A1
:101CD8007C0883160313C100C20141088312031351
:101CE800A20083160313420883120313A3000A12E7
:101CF8008A1515200A128A15831203132108BA00BF
:101D08002008B900831603135408C300C40143080C
:101D180083120313BB0083160313440883120313AF
:101D2800BC00831603135308C500C6014508831277
:101D38000313BD0083160313460883120313BE0062
:101D4800DC300A128A116E260A128A1583120313CE
:101D5800A401A40A01300A168A11B4270A128A15A6
:101D6800DC3083120313A5000030A6000A168A117E
:101D780093260A128A15243083120313AE008316A1
:101D880003134B08B700B801370883120313AF00D9
:101D980083160313380883120313B0000A30A00017
:101DA8000030A100831603134A08B900BA013908A4
:101DB80083120313A200831603133A088312031332
:101DC800A3000A128A15CE200A128A158312031359
:101DD8002108B2002008B1000A30A0000030A1009C
:101DE800831603134A08BB00BC013B088312031384
:101DF800A200831603133C0883120313A3000A12DC
:101E08008A1515200A128A15831203132108B400B3
:101E18002008B3000A30A0000030A1008316031385
:101E28004F08BD00BE013D0883120313A2008316AC
:101E380003133E0883120313A3000A128A15CE2047
:101E48000A128A15831203132108B6002008B50068
:101E58000A30A0000030A100831603134F08BF000A
:101E6800C0013F0883120313A2008316031340081E
:101E780083120313A3000A128A1515200A128A1561
:101E8800831203132108B8002008B700DC300A12B7
:101E98008A116E260A128A1583120313A401A40A52
:101EA80002300A168A11B4270A128A15DC30831206
:101EB8000313A5000030A6000A168A1193260A12F9
:101EC8008A157C088312031386000C1E6C2F6D2F55
:101ED800892D7908031D712F722F802F99010D30DC
:101EE80083160313B800FB30B700B70B792FB80B74
:101EF800792FF901F90A892D7903031D842F852F7C
:101F0800942F013099000D3083160313B800FB306D
:101F1800B700B70B8D2FB80B8D2F0230F900892D24
:101F280002307906031D992F9A2FA92F02309900A4
:101F38000D3083160313B800FB30B700B70BA22F80
:101F4800B80BA22F0330F900892D03307906031D41
:101F5800AE2FAF2FBE2F033099000D308316031319
:101F6800B800FB30B700B70BB72FB80BB72F04304A
:101F7800F900892D04307906031DC32FC42FD32FF0
:101F8800043099000D3083160313B800FB30B700F6
:101F9800B70BCC2FB80BCC2F0530F900892D0530A5
:101FA8007906031DD82FD92FE82F053099000D3059
:101FB80083160313B800FB30B700B70BE12FB80B3B
:101FC800E12F0630F900892D06307906031DED2F23
:101FD800EE2FFC2F063099000D3083160313B8003E
:101FE800FB30B700B70BF62FB80BF62FF901892D88
:101FF800892D0A128A110C28FF1B0A2883137F18BF
:1020080083170008840A0319FF0A080010308A00A1
:102018000408840A82070034013400340A34003486
:1020280064340034E834033410342734203425343D
:102038006434253464343A342534643425346434BF
:102048003A34253464342534643420347C342034E0
:102058002534643420342034253464340034203466
:1020680020342034253464342E3425346434253423
:1020780064345634203420347C3420342534643499
:10208800253464344334003420342034203420345C
:02209800003412
:102AB4002D340C34013419343B34F0007008831283
:102AC40003139300080000300A168A119F250A1682
:102AD4008A1101300A168A119F250A168A110800E4
:102AE400F6000F307605F4000A30F0007608F500A1
:102AF40004300310F50CFF3E031D7B2D75080A12EC
:102B04008A1500200A168A11740708008312031319
:102B1400A300A201231C8F2D902D942D2008A10029
:102B24002108A2070310A00D0310A30C2308031D02
:102B34009C2D9D2D8C2D2208080083120313A300C5
:102B4400081123080A128A11D8270A168A11831237
:102B5400031388150B3083120313A2006130A10004
:102B6400A10BB22DA20BB22DB72D83120313881122
:102B7400080083120313A000200883160313930094
:102B840036308312031394008030831603139400A9
:102B940001309100871507168B170B178312031347
:102BA4008C11831603138C15080083120313A300DE
:102BB40083160313871283120313231DE22DE32DBF
:102BC400E92D22088316031394008715EF2D20089E
:102BD400220483160313940087118312031323081A
:102BE40021049400080083120313A800A401A50182
:102BF4002008A200A3012208A6002308A700281C7D
:102C0400042E052E0B2E2608A4070318A50A270850
:102C1400A50701300310A60DA70DFF3E031D0C2EC2
:102C24000310A80C2808031D182E192E012E2508A0
:102C3400A1002408A000080083120313A4002408A0
:102C44000F39A2002408F039A30008152308A100B5
:102C540004300310A10CFF3E031D2B2E21080A1281
:102C64008A11D8270A168A1183120313881519307A
:102C740083120313A100A10B3D2E402E83120313D4
:102C8400881122080A128A11D8270A168A11831277
:102C940003138815193083120313A100A10B502EBE
:102CA400532E831203138811080083120313280878
:102CB400290403195E2E5F2E8E2EAD01AD0A6D2EF2
:102CC40001300310A80DA90DFF3E031D632E013032
:102CD400AC002C08AD07A91F702E712E622E290896
:102CE4002B02031D772E28082A02031C7A2E7B2E22
:102CF400812E2808AA022908031CAB03AB02013069
:102D04000310A90CA80CFF3E031D822E0130AD0256
:102D1400031D8D2E8E2E712E2B08A9002A08A800C3
:102D2400080083120313AA01AB01BC2E2A0825074D
:102D3400A8002608A7000318A70AAA1FA22EA70303
:102D4400831203132708A9002908FF002808840018
:102D54000A168A1100200A168A110A168A111E26DA
:102D64000A168A11013083120313AA070318AB0A47
:102D74000030AB072A082507A8002608A700031877
:102D8400A70AAA1FC62EA703831203132708A900A4
:102D94002908FF00280884000A168A1100200A1650
:102DA4008A11003A031DD72ED82E982E08008312BC
:102DB4000313A501A601200821040319E22EE32E22
:102DC4001A2FA701A70AF12E01300310A00DA10D9F
:102DD400FF3E031DE72E0130A4002408A707A11F0E
:102DE400F42EF52EE62E01300310A50DA60DFF3EA0
:102DF400031DF62E21082302031D022F20082202A0
:102E0400031C052F062F0D2F2008A2022108031CE6
:102E1400A303A302251401300310A10CA00CFF3E50
:102E2400031D0E2F0130A702031D192F1A2FF52E93
:102E34002608A1002508A0000800831603178801AE
:102E44008901203083160313850086018801993097
:102E54008700831203138601880102300A168A113F
:102E640069270A168A1150300A168A11BB250A16D8
:102E74008A110B178B17831203130C138316031376
:102E84000C178C16831203138C11831603138C15E1
:102E94001812181583160317871519308316031390
:102EA40099009A01831203139817831603131813B6
:102EB4009816831203131816A001A1014030A20032
:102EC40024300A168A11D7250A168A11080083129B
:102ED4000313A200831603130F14982F83160313EE
:102EE4000F088F3940388F00B32F831603130F0850
:102EF4008F3950388F00B32F831603130F088F397F
:102F040060388F00B32F7030831603138F04B32FF0
:102F1400831603130F088F3930388F00B32F8316AD
:102F240003130F088F3960388F00B32F83120313F4
:102F34002208A000A1012108003A0319A22F912F11
:102F44002008003A0319702F013A0319772F033A26
:102F540003197E2F013A0319852F073A03198A2F83
:102F6400912F080083120313A6002603031DBB2F11
:102F7400BC2FDB2F24087F3EA9002908A5000430BC
:102F84000310A50CFF3E031DC22F2508A700290826
:102F94000F39A80027080A168A119F250A168A11D4
:102FA4008312031328080A168A119F250A168A1108
:102FB400FF2F02302606031DE02FE12FFF2F2408E8
:102FC400BF3EA9002908A50004300310A50CFF3E4C
:102FD400031DE72F2508A70029080F39A800270893
:102FE4000A168A119F250A168A11831203132808C8
:0C2FF4000A168A119F250A168A1108008F
:08400000FF3FFF3FFF3FFF3FC0
:04400E00D420FF3F7C
:00000001FF
